{
  "_format": "hh-sol-artifact-1",
  "contractName": "Exchange",
  "sourceName": "contracts/Exchange.sol",
  "abi": [
    {
      "inputs": [
        {
          "internalType": "address",
          "name": "_feeAccount",
          "type": "address"
        },
        {
          "internalType": "uint256",
          "name": "_feePercent",
          "type": "uint256"
        }
      ],
      "stateMutability": "nonpayable",
      "type": "constructor"
    },
    {
      "anonymous": false,
      "inputs": [
        {
          "indexed": false,
          "internalType": "address",
          "name": "_token",
          "type": "address"
        },
        {
          "indexed": false,
          "internalType": "address",
          "name": "_user",
          "type": "address"
        },
        {
          "indexed": false,
          "internalType": "uint256",
          "name": "_amount",
          "type": "uint256"
        },
        {
          "indexed": false,
          "internalType": "uint256",
          "name": "_balance",
          "type": "uint256"
        }
      ],
      "name": "Deposit",
      "type": "event"
    },
    {
      "anonymous": false,
      "inputs": [
        {
          "indexed": false,
          "internalType": "uint256",
          "name": "_id",
          "type": "uint256"
        },
        {
          "indexed": false,
          "internalType": "address",
          "name": "_user",
          "type": "address"
        },
        {
          "indexed": false,
          "internalType": "address",
          "name": "_tokenGet",
          "type": "address"
        },
        {
          "indexed": false,
          "internalType": "uint256",
          "name": "_amountGet",
          "type": "uint256"
        },
        {
          "indexed": false,
          "internalType": "address",
          "name": "_tokenGive",
          "type": "address"
        },
        {
          "indexed": false,
          "internalType": "uint256",
          "name": "_amountGive",
          "type": "uint256"
        },
        {
          "indexed": false,
          "internalType": "uint256",
          "name": "_timestamp",
          "type": "uint256"
        }
      ],
      "name": "Order",
      "type": "event"
    },
    {
      "anonymous": false,
      "inputs": [
        {
          "indexed": false,
          "internalType": "address",
          "name": "_token",
          "type": "address"
        },
        {
          "indexed": false,
          "internalType": "address",
          "name": "_user",
          "type": "address"
        },
        {
          "indexed": false,
          "internalType": "uint256",
          "name": "_amount",
          "type": "uint256"
        },
        {
          "indexed": false,
          "internalType": "uint256",
          "name": "_balance",
          "type": "uint256"
        }
      ],
      "name": "Withdraw",
      "type": "event"
    },
    {
      "inputs": [
        {
          "internalType": "address",
          "name": "_token",
          "type": "address"
        },
        {
          "internalType": "address",
          "name": "_user",
          "type": "address"
        }
      ],
      "name": "balanceOf",
      "outputs": [
        {
          "internalType": "uint256",
          "name": "",
          "type": "uint256"
        }
      ],
      "stateMutability": "view",
      "type": "function"
    },
    {
      "inputs": [
        {
          "internalType": "address",
          "name": "_token",
          "type": "address"
        },
        {
          "internalType": "uint256",
          "name": "_amount",
          "type": "uint256"
        }
      ],
      "name": "depositToken",
      "outputs": [],
      "stateMutability": "nonpayable",
      "type": "function"
    },
    {
      "inputs": [],
      "name": "feeAccount",
      "outputs": [
        {
          "internalType": "address",
          "name": "",
          "type": "address"
        }
      ],
      "stateMutability": "view",
      "type": "function"
    },
    {
      "inputs": [],
      "name": "feePercent",
      "outputs": [
        {
          "internalType": "uint256",
          "name": "",
          "type": "uint256"
        }
      ],
      "stateMutability": "view",
      "type": "function"
    },
    {
      "inputs": [
        {
          "internalType": "address",
          "name": "_tokenGet",
          "type": "address"
        },
        {
          "internalType": "uint256",
          "name": "_amountGet",
          "type": "uint256"
        },
        {
          "internalType": "address",
          "name": "_tokenGive",
          "type": "address"
        },
        {
          "internalType": "uint256",
          "name": "_amountGive",
          "type": "uint256"
        }
      ],
      "name": "makeOrder",
      "outputs": [],
      "stateMutability": "nonpayable",
      "type": "function"
    },
    {
      "inputs": [
        {
          "internalType": "uint256",
          "name": "",
          "type": "uint256"
        }
      ],
      "name": "orders",
      "outputs": [
        {
          "internalType": "uint256",
          "name": "id",
          "type": "uint256"
        },
        {
          "internalType": "address",
          "name": "user",
          "type": "address"
        },
        {
          "internalType": "address",
          "name": "tokenGet",
          "type": "address"
        },
        {
          "internalType": "uint256",
          "name": "amountGet",
          "type": "uint256"
        },
        {
          "internalType": "address",
          "name": "tokenGive",
          "type": "address"
        },
        {
          "internalType": "uint256",
          "name": "amountGive",
          "type": "uint256"
        },
        {
          "internalType": "uint256",
          "name": "timestamp",
          "type": "uint256"
        }
      ],
      "stateMutability": "view",
      "type": "function"
    },
    {
      "inputs": [],
      "name": "ordersCount",
      "outputs": [
        {
          "internalType": "uint256",
          "name": "",
          "type": "uint256"
        }
      ],
      "stateMutability": "view",
      "type": "function"
    },
    {
      "inputs": [
        {
          "internalType": "address",
          "name": "",
          "type": "address"
        },
        {
          "internalType": "address",
          "name": "",
          "type": "address"
        }
      ],
      "name": "tokens",
      "outputs": [
        {
          "internalType": "uint256",
          "name": "",
          "type": "uint256"
        }
      ],
      "stateMutability": "view",
      "type": "function"
    },
    {
      "inputs": [
        {
          "internalType": "address",
          "name": "_token",
          "type": "address"
        },
        {
          "internalType": "uint256",
          "name": "_amount",
          "type": "uint256"
        }
      ],
      "name": "withdrawToken",
      "outputs": [],
      "stateMutability": "nonpayable",
      "type": "function"
    }
  ],
  "bytecode": "0x60806040523480156200001157600080fd5b50604051620011d0380380620011d083398181016040528101906200003791906200012b565b816000806101000a81548173ffffffffffffffffffffffffffffffffffffffff021916908373ffffffffffffffffffffffffffffffffffffffff16021790555080600181905550505062000172565b600080fd5b600073ffffffffffffffffffffffffffffffffffffffff82169050919050565b6000620000b8826200008b565b9050919050565b620000ca81620000ab565b8114620000d657600080fd5b50565b600081519050620000ea81620000bf565b92915050565b6000819050919050565b6200010581620000f0565b81146200011157600080fd5b50565b6000815190506200012581620000fa565b92915050565b6000806040838503121562000145576200014462000086565b5b60006200015585828601620000d9565b9250506020620001688582860162000114565b9150509250929050565b61104e80620001826000396000f3fe608060405234801561001057600080fd5b50600436106100935760003560e01c80637fd6f15c116100665780637fd6f15c146101205780639a5c90aa1461013e5780639e281a981461015a578063a85c38ef14610176578063f7888aec146101ac57610093565b8063338b5dea1461009857806335daa731146100b4578063508493bc146100d257806365e17c9d14610102575b600080fd5b6100b260048036038101906100ad9190610b29565b6101dc565b005b6100bc6103fa565b6040516100c99190610b78565b60405180910390f35b6100ec60048036038101906100e79190610b93565b610400565b6040516100f99190610b78565b60405180910390f35b61010a610425565b6040516101179190610be2565b60405180910390f35b610128610449565b6040516101359190610b78565b60405180910390f35b61015860048036038101906101539190610bfd565b61044f565b005b610174600480360381019061016f9190610b29565b61068c565b005b610190600480360381019061018b9190610c64565b610967565b6040516101a39796959493929190610c91565b60405180910390f35b6101c660048036038101906101c19190610b93565b610a09565b6040516101d39190610b78565b60405180910390f35b8173ffffffffffffffffffffffffffffffffffffffff166323b872dd3330846040518463ffffffff1660e01b815260040161021993929190610d00565b602060405180830381600087803b15801561023357600080fd5b505af1158015610247573d6000803e3d6000fd5b505050506040513d601f19601f8201168201806040525081019061026b9190610d6f565b6102aa576040517f08c379a00000000000000000000000000000000000000000000000000000000081526004016102a190610df9565b60405180910390fd5b80600360008473ffffffffffffffffffffffffffffffffffffffff1673ffffffffffffffffffffffffffffffffffffffff16815260200190815260200160002060003373ffffffffffffffffffffffffffffffffffffffff1673ffffffffffffffffffffffffffffffffffffffff16815260200190815260200160002060008282546103369190610e48565b925050819055507fdcbc1c05240f31ff3ad067ef1ee35ce4997762752e3a095284754544f4c709d7823383600360008773ffffffffffffffffffffffffffffffffffffffff1673ffffffffffffffffffffffffffffffffffffffff16815260200190815260200160002060003373ffffffffffffffffffffffffffffffffffffffff1673ffffffffffffffffffffffffffffffffffffffff168152602001908152602001600020546040516103ee9493929190610e9e565b60405180910390a15050565b60025481565b6003602052816000526040600020602052806000526040600020600091509150505481565b60008054906101000a900473ffffffffffffffffffffffffffffffffffffffff1681565b60015481565b8061045a8333610a09565b101561049b576040517f08c379a000000000000000000000000000000000000000000000000000000000815260040161049290610f2f565b60405180910390fd5b6001600260008282546104ae9190610e48565b925050819055506040518060e0016040528060025481526020013373ffffffffffffffffffffffffffffffffffffffff1681526020018573ffffffffffffffffffffffffffffffffffffffff1681526020018481526020018373ffffffffffffffffffffffffffffffffffffffff168152602001828152602001428152506004600060025481526020019081526020016000206000820151816000015560208201518160010160006101000a81548173ffffffffffffffffffffffffffffffffffffffff021916908373ffffffffffffffffffffffffffffffffffffffff16021790555060408201518160020160006101000a81548173ffffffffffffffffffffffffffffffffffffffff021916908373ffffffffffffffffffffffffffffffffffffffff1602179055506060820151816003015560808201518160040160006101000a81548173ffffffffffffffffffffffffffffffffffffffff021916908373ffffffffffffffffffffffffffffffffffffffff16021790555060a0820151816005015560c082015181600601559050507f9d33853d43e3607b4cc01fdc78338ff2dca6fef7db9232dae6d3eb55fbc3b10960025433868686864260405161067e9796959493929190610c91565b60405180910390a150505050565b600360008373ffffffffffffffffffffffffffffffffffffffff1673ffffffffffffffffffffffffffffffffffffffff16815260200190815260200160002060003373ffffffffffffffffffffffffffffffffffffffff1673ffffffffffffffffffffffffffffffffffffffff1681526020019081526020016000205481111561074b576040517f08c379a000000000000000000000000000000000000000000000000000000000815260040161074290610f9b565b60405180910390fd5b8173ffffffffffffffffffffffffffffffffffffffff1663a9059cbb33836040518363ffffffff1660e01b8152600401610786929190610fbb565b602060405180830381600087803b1580156107a057600080fd5b505af11580156107b4573d6000803e3d6000fd5b505050506040513d601f19601f820116820180604052508101906107d89190610d6f565b610817576040517f08c379a000000000000000000000000000000000000000000000000000000000815260040161080e90610df9565b60405180910390fd5b80600360008473ffffffffffffffffffffffffffffffffffffffff1673ffffffffffffffffffffffffffffffffffffffff16815260200190815260200160002060003373ffffffffffffffffffffffffffffffffffffffff1673ffffffffffffffffffffffffffffffffffffffff16815260200190815260200160002060008282546108a39190610fe4565b925050819055507ff341246adaac6f497bc2a656f546ab9e182111d630394f0c57c710a59a2cb567823383600360008773ffffffffffffffffffffffffffffffffffffffff1673ffffffffffffffffffffffffffffffffffffffff16815260200190815260200160002060003373ffffffffffffffffffffffffffffffffffffffff1673ffffffffffffffffffffffffffffffffffffffff1681526020019081526020016000205460405161095b9493929190610e9e565b60405180910390a15050565b60046020528060005260406000206000915090508060000154908060010160009054906101000a900473ffffffffffffffffffffffffffffffffffffffff16908060020160009054906101000a900473ffffffffffffffffffffffffffffffffffffffff16908060030154908060040160009054906101000a900473ffffffffffffffffffffffffffffffffffffffff16908060050154908060060154905087565b6000600360008473ffffffffffffffffffffffffffffffffffffffff1673ffffffffffffffffffffffffffffffffffffffff16815260200190815260200160002060008373ffffffffffffffffffffffffffffffffffffffff1673ffffffffffffffffffffffffffffffffffffffff16815260200190815260200160002054905092915050565b600080fd5b600073ffffffffffffffffffffffffffffffffffffffff82169050919050565b6000610ac082610a95565b9050919050565b610ad081610ab5565b8114610adb57600080fd5b50565b600081359050610aed81610ac7565b92915050565b6000819050919050565b610b0681610af3565b8114610b1157600080fd5b50565b600081359050610b2381610afd565b92915050565b60008060408385031215610b4057610b3f610a90565b5b6000610b4e85828601610ade565b9250506020610b5f85828601610b14565b9150509250929050565b610b7281610af3565b82525050565b6000602082019050610b8d6000830184610b69565b92915050565b60008060408385031215610baa57610ba9610a90565b5b6000610bb885828601610ade565b9250506020610bc985828601610ade565b9150509250929050565b610bdc81610ab5565b82525050565b6000602082019050610bf76000830184610bd3565b92915050565b60008060008060808587031215610c1757610c16610a90565b5b6000610c2587828801610ade565b9450506020610c3687828801610b14565b9350506040610c4787828801610ade565b9250506060610c5887828801610b14565b91505092959194509250565b600060208284031215610c7a57610c79610a90565b5b6000610c8884828501610b14565b91505092915050565b600060e082019050610ca6600083018a610b69565b610cb36020830189610bd3565b610cc06040830188610bd3565b610ccd6060830187610b69565b610cda6080830186610bd3565b610ce760a0830185610b69565b610cf460c0830184610b69565b98975050505050505050565b6000606082019050610d156000830186610bd3565b610d226020830185610bd3565b610d2f6040830184610b69565b949350505050565b60008115159050919050565b610d4c81610d37565b8114610d5757600080fd5b50565b600081519050610d6981610d43565b92915050565b600060208284031215610d8557610d84610a90565b5b6000610d9384828501610d5a565b91505092915050565b600082825260208201905092915050565b7f45786368616e6765205370656369666963204572726f72000000000000000000600082015250565b6000610de3601783610d9c565b9150610dee82610dad565b602082019050919050565b60006020820190508181036000830152610e1281610dd6565b9050919050565b7f4e487b7100000000000000000000000000000000000000000000000000000000600052601160045260246000fd5b6000610e5382610af3565b9150610e5e83610af3565b9250827fffffffffffffffffffffffffffffffffffffffffffffffffffffffffffffffff03821115610e9357610e92610e19565b5b828201905092915050565b6000608082019050610eb36000830187610bd3565b610ec06020830186610bd3565b610ecd6040830185610b69565b610eda6060830184610b69565b95945050505050565b7f4e6f7420656e6f75676820546f6b656e73000000000000000000000000000000600082015250565b6000610f19601183610d9c565b9150610f2482610ee3565b602082019050919050565b60006020820190508181036000830152610f4881610f0c565b9050919050565b7f5573657220646f6573206e6f74206861766520656e6f75676820546f6b656e73600082015250565b6000610f85602083610d9c565b9150610f9082610f4f565b602082019050919050565b60006020820190508181036000830152610fb481610f78565b9050919050565b6000604082019050610fd06000830185610bd3565b610fdd6020830184610b69565b9392505050565b6000610fef82610af3565b9150610ffa83610af3565b92508282101561100d5761100c610e19565b5b82820390509291505056fea2646970667358221220ece243fec11a5b5d0b5db564806d8cedd1409af96c766a67fe1d07d69cf9a1dc64736f6c63430008090033",
  "linkReferences": {},
  "deployedLinkReferences": {}
}